:100000000C9498250C94C9250C94C9250C94C925E9
:100010000C94C9250C94C9250C94C9250C94C925A8
:100020000C94C9250C94C9250C94C9250C94C92598
:100030000C94C9250C944B710C94C9250C94C925BA
:100040000C94C9250C947BD60C94C9250C94C92515
:100050000C94C9250C94C9250C949ACF0C944EFA93
:100060000C94C9250C94366A0C94C9250C94C925A6
:100070000C94C9250C94C9250C94C9250C94C92548
:100080000C94C9250C94C9250C94C9250C94C92538
:100090000C94C9250C94C9250C94C9250C94C92528
:1000A0000C94C9250C94C9250C94C9250C94C92518
:1000B0000C94C9250C94C9250C94C9250C94C92508
:1000C0000C94C9250C94C9250C94C9250C94C925F8
:1000D0000C94C9250C94C9250C94C9250C94C925E8
:1000E0000C94C925FACF09D025D034D04ED05DD09C
:1000F00077D07BD07DD081D089D0FEF701F8F0F7A2
:10010000F4F7FAF738F805F809F80FF813F817F8C4
:100110001DF821F825F838F82BF82FF833F868F98E
:100120006DF972F97CF986F9FFF990F998F9A0F95F
:10013000AAF9B4F9BEF9CDF9D7F9FFF9E1F9EBF96C
:10014000F5F9084AD73B3BCE016E84BCBFFDC12FF9
:100150003D6C74319ABD56833DDA3D00C77F11BEB8
:10016000D9E4BB4C3E916BAAAABE000000803F05BB
:10017000A84CCDB2D44EB93836A9020C50B99186EC
:1001800088083CA6AAAA2ABE000000803F000C9462
:100190006DF90C9445B60C94FCF40C9417F80C947F
:1001A000FFF90C9438F80C9401F80C94EAF30D94D0
:1001B000170B0C9482B50C942DFD0C94AAF90C9499
:1001C00077D00C94FACF0C941ABA0C94C3AE0C945A
:1001D0007BD00C9450B60D9402020C94BBF30C949B
:1001E000D7F90C9433D60C9468F90C94A08A0C942B
:1001F0007DD00C94FCAB0C942BF80C9421F80C944F
:10020000A4E10C94EFE00C941DF80C94A0F90C946C
:10021000EDA30C94A2B80C9401AF0C9434D00C94C0
:10022000FAF70C94FEF70C9409F80C9481D00C9416
:1002300005F80C94F5F90C94A0BB0C942FF80C94D1
:100240004ED00C94CDF90C9468EE0C94B5E60C9459
:10025000EDAE0C94CEC60C94C7F30C94EBF90C9451
:10026000E1F70C9498F90C94D6B70C9472F90C94AD
:10027000EE8A0C9489D00C9465B90C940FF80C9408
:10028000E7E00C94D1AE0C94BEF90C9498FA0C945F
:10029000DFE00C9413B70C94DFAE0C9486F90C9449
:1002A00090F90C94DA700C94B4F90D947C090C94C8
:1002B00078A50C9404ED0C9451E50C945DD00C944D
:1002C0007CF90C94E1F90D9473020C94F4F70C94FE
:1002D000C1F30C9425D00C94F0F70C94C2FF0C944D
:1002E000F7E00C9425F80C94EFDE0C9433F80C94A2
:1002F000B4B40C9413F80C94DC930C9405710C9426
:100300003CEA0C9409D00A00207A3A200020793A7D
:10031000200020783A2000426564000A00207A3AE2
:10032000200020793A200020783A20002F00534402
:10033000207072696E74696E67206279746520003E
:100340004E6F74205344207072696E74696E67003A
:100350002E0044656C6574696F6E206661696C651A
:10036000642C2046696C653A200046696C652064FF
:10037000656C657465643A002E006F70656E20666A
:1003800061696C65642C2046696C653A20005049AF
:1003900044204175746F74756E652066696E69736B
:1003A000686564212050757420746865206C6173E1
:1003B00074204B702C204B6920616E64204B6420AC
:1003C000636F6E7374616E74732066726F6D2061FB
:1003D000626F766520696E746F20436F6E66696721
:1003E00075726174696F6E2E6800504944204175C2
:1003F000746F74756E65206661696C656421207424
:10040000696D656F75740020403A006F6B20543A37
:10041000006F6B20423A00504944204175746F745C
:10042000756E65206661696C6564212054656D7028
:100430006572617475726520746F6F206869676892
:1004400000204B643A2000204B693A2000204B707A
:100450003A200020436C6173736963205049442043
:10046000002054753A2000204B753A2000206D6121
:10047000783A2000206D696E3A200020643A20000E
:1004800020626961733A20002200556E6B6E6F77AF
:100490006E20636F6D6D616E643A20220043686167
:1004A0006E67652066696C616D656E74005A204FD9
:1004B0006666736574203A20007A5F6D61783A2031
:1004C000007A5F6D696E3A20005A204F6666736548
:1004D00074005A204F6666736574206F6B006C63FE
:1004E0006420636F6E74726173742076616C7565DD
:1004F0003A20007A5F6D61783A20007A5F6D696E0C
:100500003A2000795F6D61783A2000795F6D696EFD
:100510003A2000785F6D61783A2000785F6D696EEF
:100520003A2000205A3A0020593A0020436F756E55
:100530007420583A200020453A00205A3A002059A9
:100540003A00583A004649524D574152455F4E4194
:100550004D453A4D61726C696E20312E302E322B32
:1005600020446576656C6F706D656E742046726FA1
:100570006D204172636869766520534F555243453B
:100580005F434F44455F55524C3A68747470733AF8
:100590002F2F6769746875622E636F6D2F4D6172BE
:1005A0006C696E4669726D776172652F4D61726C10
:1005B000696E2050524F544F434F4C5F5645525333
:1005C000494F4E3A312E30204D414348494E455F08
:1005D000545950453A444959652069332050726551
:1005E0006D69756D2045585452554445525F434FCF
:1005F000554E543A3120555549443A303030303018
:100600003030302D303030302D303030302D3030F3
:1006100030302D3030303030303030303030300A03
:100620000044495965206933205072656D69756DC4
:10063000204F66662E004449596520693320507268
:10064000656D69756D2072656164792E004265641F
:1006500020646F6E652E0020423A0020453A005417
:100660003A004265642048656174696E672E0048EF
:10067000656174696E6720646F6E652E0020573A5D
:100680000020453A00543A0048656174696E672E4F
:100690002E2E002042403A0020403A00202F003AFF
:1006A00000205400202F0020423A00202F006F6BC2
:1006B00020543A000A0A005374616E646172642027
:1006C000446576696174696F6E3A20000A004D6571
:1006D000616E3A20000A002020207A3A200000793A
:1006E0003A2000783A20003F537065636966696577
:1006F00064206E756D626572206F66206C6567732D
:1007000020696E206D6F76656D656E74206E6F74F6
:1007100020706C61757361626C652E0A003F5370C6
:1007200065636966696564205920706F73697469CF
:100730006F6E206F7574206F662072616E67652E14
:100740000A003F53706563696669656420582070CC
:100750006F736974696F6E206F7574206F66207295
:10076000616E67652E0A003F53706563696669654F
:10077000642073616D706C652073697A65206E6F9B
:100780007420706C61757361626C652E0A00467529
:100790006C6C20737570706F72742061743A20688D
:1007A0007474703A2F2F33647072696E74626F6163
:1007B00072642E636F6D2F666F72756D2E70687028
:1007C0000A004D3438205A2D50726F6265205265F0
:1007D000706561746162696C6974792074657374A1
:1007E0002E20202056657273696F6E20322E3030B5
:1007F0000A003F566572626F7365204C6576656CC2
:10080000206E6F7420706C61757361626C652E0A66
:10081000002569206D696E2C2025692073656300B1
:10082000456E642066696C65206C6973740042656E
:1008300067696E2066696C65206C697374004E6F21
:10084000206D6F76652E004449596520693320502C
:1008500072656D69756D2072656164792E005265EF
:1008600073756D696E67207072696E740057616987
:100870007420666F7220757365722E2E2E000A002A
:10088000205A3A200020593A200020583A200042AD
:1008900065640020643A200020623A200045716EB1
:1008A00020636F656666696369656E74733A20617B
:1008B0003A2000486F6D6520582F59206265666F99
:1008C0007265205A00486F6D6520582F5920626567
:1008D000666F7265205A005A2070726F6265206FD1
:1008E00075742E20626564005A2070726F626520F4
:1008F0006F75742E2062656400486F6D6520582FF7
:1009000059206265666F7265205A00486F6D6520D8
:10091000582F59206265666F7265205A00536C65C6
:1009200065702E2E2E0053657474696E67732053A4
:10093000746F726564002044002049002020204D1F
:100940003330312050005049442073657474696E0F
:1009500067733A00205A0020590020204D3230366B
:10096000205800486F6D65206F6666736574202897
:100970006D6D293A00204500205A00205800204281
:100980000020540020204D32303520530041647641
:10099000616E636564207661726961626C65733A49
:1009A00020533D4D696E20666565647261746520F3
:1009B000286D6D2F73292C20543D4D696E20747263
:1009C0006176656C20666565647261746520286D6A
:1009D0006D2F73292C20423D6D696E696D756D20F8
:1009E0007365676D656E742074696D6520286D731D
:1009F000292C20583D6D6178696D756D20585920FE
:100A00006A65726B20286D6D2F73292C20205A3D4A
:100A10006D6178696D756D205A206A65726B20284A
:100A20006D6D2F73292C2020453D6D6178696D75A2
:100A30006D2045206A65726B20286D6D2F7329002B
:100A400020540020204D3230342053004163636530
:100A50006C65726174696F6E3A20533D61636365C2
:100A60006C65726174696F6E2C20543D726574728E
:100A700061637420616363656C65726174696F6E34
:100A800000204500205A0020590020204D323031EE
:100A90002058004D6178696D756D20416363656C08
:100AA00065726174696F6E20286D6D2F7332293AFB
:100AB00000204500205A0020590020204D323033BC
:100AC0002058004D6178696D756D206665656472AA
:100AD0006174657320286D6D2F73293A00204500DD
:100AE000205A0020590020204D39322058005374DC
:100AF0006570732070657220756E69743A00537466
:100B00006F7265642073657474696E6773207265B3
:100B1000747269657665640048617264636F6465C8
:100B2000642044656661756C742053657474696EE5
:100B30006773204C6F61646564002200656E717597
:100B400065696E672022004D383420582059205A9C
:100B5000204500256920686F757273202569206D16
:100B6000696E7574657300446F6E65207072696E8E
:100B700074696E672066696C650053544F50504528
:100B8000442E20005072696E7465722073746F7009
:100B90007065642064756520746F206572726F7271
:100BA000732E2046697820746865206572726F72B2
:100BB00020616E6420757365204D39393920746F5A
:100BC00020726573746172742E202854656D70658F
:100BD0007261747572652069732072657365742E15
:100BE0002053657420697420616674657220726593
:100BF0007374617274696E6729004E6F204C696E60
:100C000065204E756D62657220776974682063682F
:100C100065636B73756D2C204C617374204C696E29
:100C2000653A20004E6F20436865636B73756D20D5
:100C300077697468206C696E65206E756D62657287
:100C40002C204C617374204C696E653A20006368F7
:100C500065636B73756D206D69736D617463682C6A
:100C6000204C617374204C696E653A20004C696EAB
:100C700065204E756D626572206973206E6F7420F9
:100C80004C617374204C696E65204E756D6265729F
:100C90002B312C204C617374204C696E653A200016
:100CA0004D31313000022020506C616E6E65724211
:100CB000756666657242797465733A2000204672E3
:100CC0006565204D656D6F72793A2000446563203B
:100CD0003134203230313600436F6D70696C656499
:100CE0003A200028444959452C205072656D697599
:100CF0006D2900207C20417574686F723A20004491
:100D0000656320313420323031362030303A323889
:100D10003A323300204C61737420557064617465FD
:100D2000643A200020312E302E322B004D61726C3F
:100D3000696E0020536F6674776172652052657327
:100D4000657400205761746368646F67205265732F
:100D50006574002042726F776E206F757420526543
:100D6000736574002045787465726E616C205265FD
:100D700073657400506F776572557000737461729B
:100D800074006572726F722077726974696E672081
:100D9000746F2066696C6500656E6473746F707340
:100DA000206869743A205A00205A3A00656E6473CC
:100DB000746F7073206869743A20590020593A00A2
:100DC000656E6473746F7073206869743A2058009C
:100DD00020583A00656E6473746F7073206869748C
:100DE0003A2000446F6E6520736176696E672066F5
:100DF000696C652E006F6B004D32390053442063DF
:100E0000617264206F6B006F70656E526F6F74203B
:100E10006661696C656400766F6C756D652E696ED0
:100E20006974206661696C6564004572726F723A1C
:100E300000534420696E6974206661696C006563C3
:100E4000686F3A007C3C3E5E2B3D3F2F5B5D3B2C48
:100E50002A225C0057726974696E6720746F20667D
:100E6000696C653A20002E006F70656E20666169BE
:100E70006C65642C2046696C653A20002E006F700A
:100E8000656E206661696C65642C2046696C653A04
:100E9000200046696C652073656C65637465640049
:100EA0002053697A653A200046696C65206F706549
:100EB0006E65643A20002E006F70656E2066616971
:100EC0006C65642C2046696C653A20004E6F772073
:100ED00066726573682066696C653A20004E6F77AC
:100EE00020646F696E672066696C653A2000222075
:100EF000706F73002220706172656E743A22005325
:100F00005542524F5554494E452043414C4C207454
:100F100061726765743A2200747279696E67207431
:100F20006F2063616C6C207375622D67636F6465FD
:100F30002066696C6573207769746820746F6F2010
:100F40006D616E79206C6576656C732E204D41580D
:100F5000206C6576656C2069733A004D3234004D23
:100F60003233202573006175746F25692E67004345
:100F7000616E6E6F7420656E746572207375626445
:100F800069723A200020746F6F206C6F6E67206565
:100F90007874727573696F6E2070726576656E74A1
:100FA00065640020636F6C64206578747275736982
:100FB0006F6E2070726576656E746564004D6F7635
:100FC0006520302E316D6D004D6F766520316D6D71
:100FD000004D6F76652031306D6D00507265706127
:100FE000726500526573746F7265206661696C7317
:100FF000616665004C6F6164206D656D6F7279008C
:1010000053746F7265206D656D6F7279004C434447
:1010100020636F6E74726173740046696C616D65F4
:101020006E74004D6F74696F6E0054656D706572FB
:101030006174757265004D61696E00507265686516
:1010400061742041425320636F6E66005072656880
:1010500065617420504C4120636F6E6600504944B6
:101060002D43005049442D43005049442D44005025
:1010700049442D44005049442D49005049442D49CC
:10108000005049442D50005049442D50002002206A
:1010900046616374002002204661637400200220D0
:1010A0004D6178002002204D6178002002204D69BA
:1010B0006E002002204D696E004F6666004F6E2064
:1010C000004F6666004F6E20004175746F74656D49
:1010D000700046616E2073706565640046616E2025
:1010E00073706565640042656400426564004E6F1C
:1010F0007A7A6C65004E6F7A7A6C6500436F6E7415
:10110000726F6C0000060900FE070199032B20FF97
:10111000FE08FE07FE0000000600000107070602A9
:101120000080808080800080030303060104A0A06B
:10113000A00507070600005050F850F8505005076A
:10114000070600002070A070287020050707060021
:101150000048A8502050A89005070706000040A0AE
:10116000A040A89068010303060204808080030762
:101170000706010020408080804020030707060109
:101180000080402020204080050505060001885091
:10119000F850880505050600012020F820200303EB
:1011A000030601FF604080050101060003F8030308
:1011B000030601FF40E0400507070600000808108D
:1011C000204080800507070600002050888888504E
:1011D000200507070600002060A0202020F8050752
:1011E00007060000708808304080F80507070600F1
:1011F00000F8081030088870050707060000103056
:101200005090F81010050707060000F880B0C808D5
:101210008870050707060000304080B0C888700558
:101220000707060000F808101020404005070706D1
:1012300000007088887088887005070706000070B5
:101240008898680810600307070601FF40E0400027
:1012500040E0400307070601FF40E0400060408097
:1012600004070706010010204080402010050303FA
:10127000060002F800F8040707060100804020106D
:1012800020408005070706000070881020200020FD
:10129000050707060000708898A8B080700507074A
:1012A00006000020508888F8888805070706000097
:1012B000F04848704848F00507070600007088802D
:1012C00080808870050707060000F04848484848B5
:1012D000F0050707060000F88080F08080F8050719
:1012E00007060000F88080F0808080050707060070
:1012F000007088808098887005070706000088883D
:1013000088F8888888030707060100E040404040CD
:1013100040E0050707060000381010101090600527
:1013200007070600008890A0C0A090880507070660
:101330000000808080808080F80507070600008814
:1013400088D8A88888880507070600008888C8A864
:101350009888880507070600007088888888887044
:10136000050707060000F08888F0808080050808DF
:101370000600FF7088888888A8700805070706009F
:1013800000F08888F0A090880507070600007088A4
:101390008070088870050707060000F820202020CC
:1013A000202005070706000088888888888870053F
:1013B0000707060000888888505050200507070658
:1013C0000000888888A8A8D8880507070600008834
:1013D000885020508888050707060000888850201C
:1013E000202020050707060000F80810204080F89C
:1013F000030707060100E08080808080E005070782
:10140000060000808040201008080307070601003E
:10141000E02020202020E00503030600042050885F
:101420000501010600FFF8020202060206804005DF
:101430000505060000700878887805070706000093
:101440008080B0C888C8B005050506000070888097
:1014500088700507070600000808689888986805DE
:1014600005050600007088F8807005070706000073
:10147000304840F04040400507070600FE78888865
:10148000780888700507070600008080B0C8888843
:10149000880307070601004000C0404040E00409FF
:1014A000090601FE1000301010109090600507072B
:1014B00006000080808890E09088030707060100FE
:1014C000C04040404040E0050505060000D0A8A807
:1014D000A888050505060000B0C8888888050505A8
:1014E00006000070888888700507070600FEB0C8EF
:1014F00088C8B080800507070600FE68988898684D
:101500000808050505060000B0C8808080050505AF
:1015100006000070807008F00507070600004040D4
:10152000F040404830050505060000888888986826
:1015300005050506000088885050200505050600B1
:10154000008888A8A850050505060000885020508E
:10155000880507070600FE888898680888700505D2
:1015600005060000F8102040F804070706010030C7
:101570004020C020403001070706020080808080A4
:10158000808080040707060100C02040304020C052
:1015900005030306000448A89000000001000000B5
:1015A0000000010000000000010000000000010038
:1015B0000000000001000000000001000000000029
:1015C0000100000000000100000000000100000018
:1015D0000000010000000000010000000000010008
:1015E00000000000010000000000010000000000F9
:1015F00001000000000001000000000001000000E8
:1016000000000100000000000100000000000100D7
:1016100000000000010000000000010000000000C8
:1016200001000000000001000000000001000000B7
:1016300000000100000000000100000000000100A7
:101640000000000001000000000001000000000098
:101650000100000000000100000000000100000087
:10166000000006000001070706020080008080805D
:1016700080800507070600FF2078A0A0A07820053D
:101680000707060000304840E04048B00505050661
:10169000000088705070880508080600FF88885090
:1016A00020F82020200107070602008080800080AB
:1016B00080800508080600FF7080E09048380870B8
:1016C000030101060107A00507070600007088A8AE
:1016D000C8A888700406060601017090B05000F09A
:1016E000060505060000244890482404020206016D
:1016F00002F010040101060103F0050707060000CF
:101700007088E8C8C88870050101060007F803035F
:101710000306010440A0400506060600002020F84C
:101720002020F804050506010360902040F0040520
:1017300005060103E0106010E00202020602064006
:10174000800506060600FF888888C8B08005070760
:1017500006000078E8E8682828280101010602034D
:10176000800202020602FE408003050506010340D6
:10177000C04040E00406060601016090906000F061
:101780000605050600009048244890060909060051
:10179000FF40C04040E40C143C040609090600FF69
:1017A00040C04040E81404081C0509090600FFC0B9
:1017B000204020C8182878080507070600002000E8
:1017C00020204088700508080600004020708888A6
:1017D000F888880508080600001020708888F888B6
:1017E000880508080600002050708888F888880559
:1017F000080806000048B0708888F888880508083E
:101800000600005000708888F888880508080600DF
:10181000002050708888F888880607070600003C7A
:1018200050909CF0909C0509090600FE708880800D
:10183000808870204005080806000040F88080F08D
:101840008080F805080806000010F88080F080808D
:10185000F805080806000020F88080F08080F80570
:10186000080806000050F88080F08080F80308081F
:101870000601008040E040404040E00308080601C7
:10188000002040E040404040E003080806010040DE
:10189000A0E040404040E0030808060100A000E04E
:1018A00040404040E0050707060000F04848E8488F
:1018B00048F0050808060000285088C8A8988888BD
:1018C0000508080600004020708888888870050890
:1018D00008060000102070888888887005080806AF
:1018E000000020507088888888700508080600006D
:1018F0002850708888888870050808060000500005
:10190000708888888870050505060000885020507A
:1019100088050707060000709898A8C8C8700508D1
:101920000806000040208888888888700508080616
:101930000000102088888888887005080806000044
:10194000205000888888887005080806000050002C
:101950008888888888700508080600001020888814
:101960005020202005070706000080F088F08080C6
:1019700080050707060000708890A09088B00508D1
:1019800008060000402000700878887805080806DE
:10199000000010200070087888780508080600000C
:1019A0002050007008788878050808060000285044
:1019B0000070087888780507070600005000700856
:1019C000788878050808060000205020700878887C
:1019D0007806050506000078147C907C050707064C
:1019E00000FE7088808870204005080806000040CE
:1019F00020007088F880700508080600001020009C
:101A00007088F88070050808060000205000708873
:101A1000F8807005070706000050007088F8807095
:101A2000030808060100804000C0404040E0030871
:101A300008060100408000C0404040E0030808065E
:101A4000010040A000C0404040E0060A0A0600FE37
:101A5000A4A800FC8480808084FC060A0A0600FE9C
:101A6000549400FC8404040484FC05080806000067
:101A7000285000B0C8888888050808060000402063
:101A8000007088888870040A0A0602FE3040809040
:101A9000909090909090040A0A0600FEC02010904A
:101AA000909090909090060707060001448C8C84DB
:101AB00080403C06070706000188C4C4840408F07F
:101AC0000505050600012000F800200508080600AD
:101AD0000040F0C88888987810050808060000E0E3
:101AE000F88888888888F80505050600012030F800
:101AF00030200508080600002070F820202020E093
:101B00000509090600FF2070A8A8B888885020059C
:101B100009090600FFE080C0B0A8A8302828050900
:101B2000090600FFF8A88888888888A8F8050A0AA6
:101B30000600FE205050505088A8A888704361725B
:101B4000642072656D6F766564004361726420691C
:101B50006E73657274656400526573656E643A20D5
:101B6000006F6B004B494C4C45442E20005072696D
:101B70006E7465722068616C7465642E206B696C8C
:101B80006C28292063616C6C6564210053544F50AC
:101B90005045442E20005072696E74657220737433
:101BA0006F707065642064756520746F2065727253
:101BB0006F72732E20466978207468652065727292
:101BC0006F7220616E6420757365204D393939203C
:101BD000746F20726573746172742E202854656D61
:101BE00070657261747572652069732072657365C2
:101BF000742E2053657420697420616674657220A8
:101C000072657374617274696E67290000007A43AB
:101C1000000087430000484300000000000000006F
:101C200000000000000000000000000000000000B4
:101C30000000A0400000A0400000004000007A43E7
:101C40000000874300004843FFFFFF2200656E71DC
:101C50007565696E672022004573746570732F6D1A
:101C60006D004573746570732F6D6D005A737465E4
:101C700070732F6D6D005A73746570732F6D6D00E6
:101C80005973746570732F6D6D005973746570733B
:101C90002F6D6D005873746570732F6D6D005873E0
:101CA000746570732F6D6D00412D72657472616380
:101CB0007400412D7265747261637400416D6178C6
:101CC000206500416D6178206500416D6178207A62
:101CD00000416D6178207A00416D61782079004182
:101CE0006D6178207900416D6178207800416D61E7
:101CF000782078005654726176206D696E005654D3
:101D0000726176206D696E00566D696E00566D6960
:101D10006E00566D6178206500566D617820650013
:101D2000566D6178207A00566D6178207A00566D84
:101D30006178207900566D6178207900566D617860
:101D4000207800566D617820780056652D6A65729E
:101D50006B0056652D6A65726B00567A2D6A657246
:101D60006B00567A2D6A65726B005678792D6A651C
:101D7000726B005678792D6A65726B0041636365FA
:101D80006C00416363656C005A204F66667365742E
:101D9000005A204F666673657400436F6E74726FED
:101DA0006C00202D20496E76616C69642065787422
:101DB0007275646572206E756D6265722021001007
:101DC00000C90210012C014001220170011801B06C
:101DD000010E01F00104015002FA00B002F00030DF
:101DE00003E600D003DC009004D2007005C800A018
:101DF00006BE000008B400B009AA00D00BA0006025
:101E00000E960060118C000015820020197800C029
:101E10001D6E00A0226400B0275A00902C500000D4
:101E2000314600E0343C0010383200903A2800601F
:101E30003C1E00A03D1400803E0A00203F000045EB
:101E400072723A204D415854454D50003A20457821
:101E50007472756465722073776974636865642051
:101E60006F66662E204D415854454D50207472695E
:101E70006767657265642021004572723A204D499A
:101E80004E54454D50003A20457874727564657221
:101E9000207377697463686564206F66662E204DD1
:101EA000494E54454D502074726967676572656488
:101EB0002021004572723A204D415854454D502022
:101EC0004245440054656D70657261747572652099
:101ED0006865617465642062656420737769746302
:101EE000686564206F66662E204D415854454D50FC
:101EF000207472696767657265642021210024F48B
:101F0000D43050C38E20C2A24017828B7011127A37
:101F1000910D816CD90AA861E108C7586607615123
:101F200043061E4B5D05C145A7041A411104093D36
:101F30009803713931034036DB0265339102D430A6
:101F40005402802E1D02632CEE01752AC501B028B3
:101F5000A001102781018F2564012B244B01E02271
:101F60003401AC211F018D200D01801FFC00841E57
:101F7000ED00971DDF00B81CD200E61BC600201B39
:101F8000BC00641AB200B219A8000A19A0006A18AD
:101F90009900D117910040178B00B51684003116B7
:101FA0007E00B31579003A157300C7146F005814FA
:101FB0006A00EE1366008813630025135E00C712E3
:101FC0005B006C12570015125400C11151007011C2
:101FD0004F0021114B00D61049008D1047004610CC
:101FE000440002104200C00F4000800F3E00420F2C
:101FF0003C00060F3B00CB0E3800930E37005C0E02
:102000003500270E3400F30D3200C10D3100900D64
:102010003000600D2E00320D2D00050D2C00D90C66
:102020002B00AE0C2900850C29005C0C2700350C18
:1020300027000E0C2600E80B2400C40B2400A00B84
:1020400023007D0B23005A0B2100390B2100180BB4
:102050002000F80A1F00D90A1E00BB0A1E009D0AB4
:102060001D00800A1D00630A1C00470A1B002C0A81
:102070001B00110A1A00F7091A00DD091900C4092A
:102080001900AB091900920917007B0918006309B0
:1020900017004C09160036091600200916000A0917
:1020A0001500F5081500E0081400CC081400B80865
:1020B0001400A4081400900813007D0812006B0897
:1020C00013005808120046081200340811002308B3
:1020D00011001208110001081100F0071000E007BC
:1020E0001000D0071000C0071000B0070F00A107B4
:1020F000100091070E0083070F0074070F0065079B
:102100000E0057070E0049070E003B070D002E0773
:102110000E0020070D0013070D0006070D00F9063D
:102120000C00ED060D00E0060C00D4060C00C806FD
:102130000C00BC060C00B0060C00A4060B009906AF
:102140000C008D060B0082060B0077060B006C0658
:102150000B0061060A0057060B004C060A004206F7
:102160000A0038060A002E060A0024060A001A068B
:102170000A001006090007060A00FD050900F4051B
:102180000900EB050900E2050900D9050900D005A1
:102190000900C7050900BE050900B5050800AD0521
:1021A0000800A50509009C050800940508008C0599
:1021B0000800840508007C050800740508006C050B
:1021C0000700650508005D050700560508004E0577
:1021D00007004705070040050800380507003105DE
:1021E00007002A050700230507001C050600160541
:1021F00007000F0507000805060002050700FB049D
:102200000600F5040700EE040600E8040600E204F8
:102210000700DB040600D5040600CF040600C9044D
:102220000600C3040600BD040600B7040600B1049E
:102230000500AC040600A6040600A00405009B04EB
:10224000060095040500900406008A040500850434
:102250000500800406007A0405007504050070047A
:1022600005006B04050066040500610405005C04BC
:10227000050057040500520405004D0405004804FC
:102280000500430405003E0404003A04050035043B
:102290000500300404002C04050027040400230476
:1022A00005001E0404001A040400160405001104AD
:1022B00004000D04040009040500040404000004E3
:1022C0000400FC030400F8030400F4030400F0031A
:1022D0000400EC030400E8030400E4030400E0034A
:1022E0000400DC030400D8030400D4030400D0037A
:1022F0000400CC030400C8030300C503030024F456
:1023000004D9201BC40C5C0E9804C4095F02650745
:102310007101F405F900FB04B30048048700C10310
:1023200069005803550003034500BE023A008402C9
:10233000310053022A002902250004022000E40192
:102340001C00C8011900AF01170098011400840196
:102350001300710110006101100051010E004301D2
:102360000D0036010B002B010B0020010B001501A5
:1023700009000C01090003010800FB000800F3003C
:102380000800EB000700E4000600DE000600D800AD
:102390000600D2000600CC000500C7000500C20000
:1023A0000500BD000400B9000400B5000400B10040
:1023B0000400AD000400A9000400A5000300A20071
:1023C00003009F0004009B00030098000300950099
:1023D000020093000300900003008D0002008B00B8
:1023E00003008800020086000200840003008100D0
:1023F00002007F0002007D0002007B0002007900E5
:1024000002007700010076000200740002007200F2
:102410000100710002006F0002006D0001006C00FD
:1024200002006A0001006900020067000100660006
:10243000010065000100640002006200010061000B
:102440000100600001005F0002005D0001005C000F
:1024500001005B0001005A00010059000100580012
:102460000100570001005600010055000100540012
:102470000100530000005300010052000100510010
:102480000100500001004F0001004E0000004E000E
:1024900001004D0001004C0001004B0000004B000A
:1024A00001004A0001004900010048000000480006
:1024B0000100470001004600000046000100450001
:1024C00000004500010044000100430000004300FB
:1024D00001004200000042000100410000004100F4
:1024E0000100400001003F0000003F0001003E00ED
:1024F00000003E0001003D0000003D0001003C00E6
:1025000000003C0000003C0001003B0000003B00DC
:1025100001003A0000003A000100390000003900D3
:1025200001003800000038000000380001003700CA
:1025300000003700010036000000360000003600C1
:1025400001003500000035000000350001003400B6
:1025500000003400000034000100330000003300AC
:1025600000003300010032000000320000003200A1
:102570000100310000003100000031000100300096
:10258000000030000000300001002F0000002F008C
:1025900000002F0000002F0001002E0000002E0080
:1025A00000002E0001002D0000002D0000002D0075
:1025B00000002D0001002C0000002C0000002C0069
:1025C00000002C0001002B0000002B0000002B005D
:1025D00000002B0001002A0000002A0000002A0051
:1025E00000002A0001002900000029000000290045
:1025F0000000290000002900010028000000280038
:10260000000028000000280000002800010027002A
:10261000000027000000270000002700000027001E
:102620000100260000002600000026000000260011
:102630000000260001002500000025000000250004
:1026400000002500000025000000250001002400F6
:1026500000002400000024000000240000002400EA
:1026600001002300000023000000230000002300DD
:1026700000002300000023000000230001002200CE
:1026800000002200000022000000220000002200C2
:1026900000002200010021000000210000002100B4
:1026A00000002100000021000000210000002100A6
:1026B0000100200000002000000020000000200099
:1026C000000020000000200000002000000020008A
:1026D00001001F0000001F0000001F0000001F007D
:1026E00000001F0000001F0000001F0001001E006E
:1026F00000001E0000001E0000001E0000005072BE
:1027000065686561742041425320426564005072DF
:1027100065686561742041425320310050726570D4
:10272000617265004D3330302053363938205032D5
:102730003030004D33303020533635392050323070
:1027400030004D6F76652061786973004D38300038
:1027500053776974636820706F776572206F6E00BD
:102760004D38310053776974636820706F776572F4
:10277000206F666600436F6F6C646F776E005072F7
:1027800065686561742041425300507265686561F7
:102790007420504C410053657420686F6D65206F44
:1027A00066667365747300473238004175746F2034
:1027B000686F6D65004D38340044697361626C6503
:1027C000207374657070657273004D61696E005896
:1027D0000059005A00457874727564657200457836
:1027E000747275646572004D6F7665205A004D6F86
:1027F00076652059004D6F76652058004D6F7665DF
:1028000020617869730000091200FC0A01E803D70F
:1028100020FFFD0EFD0BFD00000009000E010B0B5B
:102820000904008080808080808000008080040413
:102830000409030790909090080A0A0900002424D4
:1028400024FF2424FF242424070B0B0901FF107C00
:10285000929050381412927C10070A0A0901004223
:10286000A4A4481010244A4A84070A0A09010060F7
:102870009090906062948894620104040904078037
:10288000808080030C0C0903FF2040408080808002
:102890008080404020030C0C0903FF804040202032
:1028A0002020202040408007070709010310925490
:1028B00038549210070707090101101010FE10107C
:1028C000100204040904FEC0C04080070101090190
:1028D00004FE020202090400C0C0070A0A0901003E
:1028E00002040408101020404080070A0A09010071
:1028F00038448282828282824438070A0A090100AF
:10290000103050901010101010FE070A0A09010034
:10291000384482020408102040FE070A0A09010018
:10292000FE020408180402028478070A0A0901005A
:10293000040C14244484FE040404070A0A09010058
:10294000FE808080F80402028478070A0A090100E8
:102950003C408080B8C482824438070A0A090100DA
:10296000FE020404080810101010070A0A090100EA
:1029700038448244384482824438070A0A090100F4
:1029800038448282463A02020478020707090400AA
:10299000C0C0000000C0C00209090904FEC0C00098
:1029A0000000C0C04080050909090200081020404D
:1029B0008040201008070404090102FE0000FE0503
:1029C0000909090200804020100810204080070AF1
:1029D0000A09010038448202040810100010070A96
:1029E0000A09010038449AAAAAAAAA9C403C070AEC
:1029F0000A09010010282828447C44828282070AA0
:102A00000A090100F8848284F884828284F8070A23
:102A10000A0901003C42808080808080423C070A95
:102A20000A090100F88482828282828284F8070A7D
:102A30000A090100FE808080F880808080FE070AFD
:102A40000A090100FE808080F88080808080070A6B
:102A50000A09010038448280808E82824438070A45
:102A60000A09010082828282FE8282828282050AB3
:102A70000A090200F82020202020202020F8070A40
:102A80000A0901003E080808080808888870070A33
:102A90000A09010082848890A0D088848282070A73
:102AA0000A090100808080808080808080FE070A83
:102AB0000A0901008282C6AA928282828282070A61
:102AC0000A0901008282C2A2928A86828282070A51
:102AD0000A0901007C82828282828282827C070AC9
:102AE0000A090100F884828284F880808080080BC3
:102AF0000B0901FF384482828282828A443A0107AC
:102B00000A0A090100F884828284F8908884820786
:102B10000A0A0901007C8280807C020202827C0712
:102B20000A0A090100FE10101010101010101007F2
:102B30000A0A0901008282828282828282443807E4
:102B40000A0A090100828282444444282828100786
:102B50000A0A0901008282828292929292AA440712
:102B60000A0A090100828244281010284482820740
:102B70000A0A090100828244281010101010100760
:102B80000A0A090100FE0204081020408080FE04A9
:102B90000C0C0903FFF08080808080808080808022
:102BA000F0070A0A090100804040201010080404C0
:102BB00002040C0C0902FFF010101010101010107D
:102BC0001010F007040409010610284482080101CE
:102BD0000900FFFF03030309030A804020070707DA
:102BE0000901007C02027E82867A070A0A09010036
:102BF000808080BCC2828282C2BC070707090100B4
:102C00007C82808080827C070A0A0901000202021D
:102C10007A86828282867A0707070901007C82828F
:102C2000FE80827C070A0A0901001C22222020F86B
:102C300020202020070A0A0901FD7A8484847880F4
:102C40007C82827C070A0A090100808080BCC282E3
:102C500082828282050A0A090200600000E02020C8
:102C6000202020F8050D0D0902FD18000038080885
:102C700008080808888870070A0A0901008080800F
:102C8000848890B0C88482050A0A090200E02020E6
:102C9000202020202020F8070707090100EC92924D
:102CA00092929282070707090100BCC28282828247
:102CB000820707070901007C82828282827C070AE0
:102CC0000A0901FDB8C4828282C4B8808080070AE4
:102CD0000A0901FD3A46828282463A020202070749
:102CE000070901009C624240404040070707090174
:102CF000007C82807C02827C070909090100202077
:102D0000FC20202020221C07070709010082828264
:102D10008282867A070707090100828244442828B4
:102D2000100707070901008282929292AA440707BE
:102D30000709010082442810284482070A0A090171
:102D4000FD42422424241818109060070707090147
:102D500000FE0408102040FE060B0B0902001C2098
:102D6000202020C0202020201C010C0C0904FF8002
:102D70008080808080808080808080060B0B0901AD
:102D800000E0101010100C10101010E007030309E1
:102D9000010762928CFFFFFFFFFFFFFFFFFFFFFFB6
:102DA000FFFFFFFFFFFFFFFFFFFFFFFFFFFFFFFF33
:102DB000FFFFFFFFFFFF00000009000E010B0B09E2
:102DC0000400808000008080808080808006080869
:102DD00009010008789490A0A47840070A0A090124
:102DE000001C222020F8202060A25C0706060901B2
:102DF00003827C44447C82070A0A090100828244DF
:102E0000287C107C101010010B0B0904FF808080BF
:102E10008080008080808080040B0B0902FF60901E
:102E200080609090906010906003020209030BA0F4
:102E3000A00809090900013C4299A5A1A599423CB5
:102E4000050707090103609070907800F8070808EB
:102E50000901011224489090482412060404090133
:102E600002FC040404050101090204F80809090927
:102E700000013C42B9A5BDA9A5423C0601010901DA
:102E800009FC04040409030660909060070909091D
:102E90000101101010FE10101000FE0406060901BA
:102EA000046090106080F004060609010460902020
:102EB00010906003030309030A20408007090909F1
:102EC00001FE8282828282C6BA8080070A0A0901D4
:102ED000007E8A8A8A7A0A0A0A0A0A020202090417
:102EE00004C0C00403030902FD2090600306060924
:102EF000010440C0404040E0050606090104708816
:102F0000887000F80708080901019048241212246B
:102F10004890070A0A09010040C0404042E60A12F0
:102F20001A06070A0A09010040C040404CF2020C90
:102F3000101E070A0A0901006090201092660A120A
:102F40001A06070A0A0901001000101020408082AA
:102F5000827C070E0E090100201008001028282886
:102F6000447C44828282070E0E0901000810200072
:102F700010282828447C44828282070E0E09010012
:102F80001028440010282828447C44828282070D9F
:102F90000D09010034580010282828447C448282FE
:102FA00082070D0D09010028280010282828447CDC
:102FB00044828282070E0E09010010282810102872
:102FC0002828447C44828282070A0A0901001E28BC
:102FD00028284E784888888E070D0D0901FD3C424F
:102FE000808080808080423C082418070E0E0901F2
:102FF0000020100800FE808080F880808080FE071E
:103000000E0E09010008102000FE808080F88080EC
:103010008080FE070E0E09010010284400FE80800B
:1030200080F880808080FE070D0D090100282800AF
:10303000FE808080F880808080FE050E0E090200F0
:1030400040201000F82020202020202020F8050E0D
:103050000E09020010204000F8202020202020200F
:1030600020F8050E0E09020020508800F8202020CC
:103070002020202020F8050D0D090200505000F8F6
:103080002020202020202020F8070A0A09010078AB
:10309000444242F24242424478070D0D0901003495
:1030A00058008282C2A2928A86828282070E0E090C
:1030B0000100201008007C82828282828282827CCF
:1030C000070E0E090100081020007C828282828295
:1030D0008282827C070E0E090100102844007C8247
:1030E000828282828282827C070D0D09010034581F
:1030F000007C82828282828282827C070D0D09019D
:10310000002828007C82828282828282827C070759
:103110000709010182442810284482070C0C090188
:10312000FF027C868A8A9292A2A2C27C80070E0E3F
:1031300009010020100800828282828282828244F9
:1031400038070E0E09010008102000828282828258
:103150008282824438070E0E090100102844008242
:10316000828282828282824438070D0D0901002802
:10317000280082828282828282824438070E0E096F
:103180000100081020008282442810101010101036
:10319000070A0A0901008080FC828282FC8080800C
:1031A000060A0A09010038444448D04844444458B7
:1031B000070B0B090100201008007C02027E8286AA
:1031C0007A070B0B090100081020007C02027E82A6
:1031D000867A070B0B090100102844007C02027E4E
:1031E00082867A070A0A0901003458007C02027EAE
:1031F00082867A070A0A0901002828007C02027EDA
:1032000082867A070C0C09010010282810007C0225
:10321000027E82867A0707070901006C12127E90EF
:10322000926C070A0A0901FD7C82808080827C10F2
:103230004830070B0B090100201008007C8282FE39
:1032400080827C070B0B090100081020007C828221
:10325000FE80827C070B0B090100102844007C8251
:1032600082FE80827C070A0A0901002828007C82ED
:1032700082FE80827C050C0C090200804020000048
:10328000E02020202020F8050C0C0902001020402E
:103290000000E02020202020F8050C0C090200206E
:1032A00050880000E02020202020F8050B0B0902A8
:1032B0000050500000E02020202020F8070B0B09D0
:1032C0000100483050083C448282824438070A0A90
:1032D000090100345800BCC28282828282070B0B33
:1032E000090100201008007C82828282827C070B08
:1032F0000B090100081020007C82828282827C07F8
:103300000B0B090100102844007C82828282827C9F
:10331000070A0A0901003458007C82828282827C7A
:10332000070A0A0901002828007C82828282827CA6
:1033300007090909010010381000FE0010381007B5
:1033400009090901FF027C8A8A92A2A27C80070BEC
:103350000B090100402010008282828282867A0757
:103360000B0B090100081020008282828282867A7B
:10337000070B0B090100102844008282828282869A
:103380007A070A0A0901002828008282828282863E
:103390007A070E0E0901FD0408100042422424247D
:1033A0001818109060070B0B0901FE8080B8C482CA
:1033B0008282C4B88080070D0D0901FD24240042DB
:1033C00042242424181810906059002D2D3A2D2DD8
:1033D000000000000000000000000000007FFFE08F
:1033E0000000000000000000000000007000E0008D
:1033F000000000000000000000000061F860000014
:103400000000000000000000000041F82000000063
:1034100000000000000000000040F020000000005C
:1034200000000000000000004060200000000000DC
:10343000000000000000005801A07F800000000094
:103440000000004104005C63A0FFC0000000000019
:1034500000002082005EF7A0FFC000000000000016
:10346000002082005EF7A0FFC00000000000000006
:103470004104005C63A07F80000000000000008227
:1034800008005801A07F8000000000000001041027
:1034900000406020FFC00000000000000104100098
:1034A00040F020FFC0000000000000008208004142
:1034B000F820FFC00000000000000041040061F897
:1034C000603F00000000000000000000007000E00D
:1034D0001E0000000000000001FFFF807FFFE00CE5
:1034E0000000000000000001FFFF8000000000005D
:1034F000000000000000000000007FFFE00000006E
:103500000000000000000000007000E0000000006B
:103510000000000000000000630C600000000000DC
:1035200000000000000000470E2000000000000026
:103530000000000000004F0F20000000000000000D
:1035400000000000005F0FA000000000000000006D
:10355000000000005E07A07F800000000000000067
:10356000410400406020FFC0000000000000002077
:10357000820040F020FFC000000000000000208218
:103580000040F020FFC000000000000000410400E7
:103590004060207F80000000000000008208005E84
:1035A00007A07F80000000000000010410005F0FF2
:1035B000A0FFC0000000000000010410004F0F2019
:1035C000FFC000000000000000820800470E20FF3E
:1035D000C000000000000000410400630C603F00D8
:1035E000000000000000000000007000E01E00006D
:1035F000000000000001FFFF807FFFE00C000000E2
:103600000000000001FFFF800000004D383420580A
:103610002059205A2045004E6F2053442063617288
:1036200064005072696E742066726F6D205344009E
:1036300053746F70207072696E7400526573756D8B
:1036400065207072696E74005061757365207072C8
:10365000696E7400436F6E74726F6C0050726570A7
:103660006172650054756E6500496E666F20736304
:103670007265656E0000060900FE06018902FE20E3
:10368000FFFE07FE06FE0000000600070106060614
:103690000200808080800080030303060103A0A055
:1036A000A00507070600FF5050F850F850500509D4
:1036B000090600FE2070A8A07028A870200608083F
:1036C0000600FF40A84810204854080507070600D8
:1036D000FF60909060989068010303060203808069
:1036E000800207070602FF4080808080804002073A
:1036F000070602FF80404040404080050505060067
:10370000008850F850880505050600002020F820A4
:10371000200204040602FEC04040800501010600AC
:1037200002F8020202060200C0C0040606060100FA
:1037300010102040808004060606010060909090E2
:10374000906003060606010040C0404040E00406C9
:10375000060601006090102040F0040606060100F5
:10376000F020601010E005060606000010305090B2
:10377000F810040606060100F080E01010E00406D0
:10378000060601006080E0909060040606060100D5
:10379000F010102040400406060601006090609082
:1037A00090600406060601006090907010600205AB
:1037B00005060200C0C000C0C00207070602FEC026
:1037C000C000C0404080050505060000186080600C
:1037D00018050303060001F800F8050505060000BA
:1037E000C0300830C0040707060100609010604038
:1037F00000400506060600007090A8B0807005061F
:1038000006060000205088F8888805060606000095
:10381000F088F08888F00406060601006090808039
:103820009060040606060100E090909090E0040687
:1038300006060100F080E08080F004060606010024
:10384000F080E0808080040606060100609080B071
:1038500090600406060601009090F0909090030698
:1038600006060100E040404040E005060606000074
:1038700038101010906004060606010090A0C0A049
:1038800090900406060601008080808080F0050686
:103890000606000088D8A8A8888804060606010045
:1038A00090D0B09090900506060600007088888839
:1038B0008870040606060100E09090E0808004070E
:1038C000070601FF609090D0B06010040606060164
:1038D00000E09090E09090040606060100609040A1
:1038E000209060050606060000F820202020200415
:1038F000060606010090909090906004060606016E
:1039000000909090F060600506060600008888A888
:10391000A8D8880506060600008850202050880593
:1039200006060600008888502020200406060601AE
:1039300000F010204080F0030606060100E08080C1
:103940008080E004060606010080804020101003FD
:103950000606060100E020202020E0050303060003
:10396000032050880501010600FEF802020206024B
:103970000480400404040601007090907004060660
:103980000601008080E09090E004040406010070CD
:10399000808070040606060100101070909070047C
:1039A000040406010060B0C0700406060601002091
:1039B0005040E040400406060601FE609090701002
:1039C000600406060601008080E0909090030606E1
:1039D0000601004000C04040E00308080601FE2048
:1039E0000060202020A0400406060601008080A080
:1039F000C0A090030606060100C040404040E0051C
:103A00000404060000D0A8A888040404060100E00D
:103A100090909004040406010060909060040606F3
:103A20000601FEE09090E080800406060601FE702C
:103A30009090701010040404060100A0D08080044F
:103A4000040406010070C030E004060606010040D0
:103A500040E040502004040406010090909070045F
:103A600004040601009090606005040406000088CC
:103A7000A8A85004040406010090606090040606A3
:103A80000601FE909090709060040404060100F01E
:103A90002040F003070706010020404080404020FE
:103AA0000107070602FF808080808080800307076F
:103AB00006010080404020404080040202060103CD
:103AC00050A0FFFFFFFFFFFFFFFFFFFFFFFFFFFF14
:103AD000FFFFFFFFFFFFFFFFFFFFFFFFFFFFFFFFF6
:103AE000FFFFFF0000000600070106060602008037
:103AF00000808080800406060601FF2070A0A07070
:103B0000200507070600FF304840F04040F8050553
:103B100005060000A8508850A80506060600008883
:103B200050F820F8200107070602FF8080800080FF
:103B300080800407070601FF708060906010E0033A
:103B40000101060105A0060707060000788494A479
:103B500094847803050506010160A06000E0050576
:103B6000050600002850A05028040303060100F0B9
:103B70001010040101060102F00607070600007894
:103B800084B4A4A48478040101060105F0040303AD
:103B90000601026090600507070600FF2020F8205C
:103BA0002000F803050506010140A02040E00305C0
:103BB00005060101C0204020C002020206020440A6
:103BC000800405050601FF9090B0D080050606062A
:103BD000000078E8E8682828010101060202800256
:103BE00002020602FE408003050506010140C040B6
:103BF00040E003050506010140A04000E005050581
:103C0000060000A0502850A00508080600FF40C08C
:103C10004050703078100508080600FF40C0405042
:103C2000680810380508080600FFC0204030F03052
:103C300078100407070601002000206080906005CE
:103C400007070600004020205070888805070706F7
:103C5000000010202050708888050707060000200B
:103C60005020507088880507070600002850205013
:103C7000708888050707060000500020507088886B
:103C800005070706000020502050708888050606AA
:103C900006000078A0F0A0A0B80408080601FE60A5
:103CA000908080906020400407070601004020F0CB
:103CB00080E080F00407070601002040F080E080EB
:103CC000F00407070601002050F080E080F00407B0
:103CD000070601005000F080E080F00307070601AE
:103CE000008040E0404040E003070706010020401C
:103CF000E0404040E003070706010040A0E04040EC
:103D000040E0030707060100A000E0404040E00556
:103D100006060600007048E84848700407070601D8
:103D20000050A090D0B090900407070601004020FA
:103D3000609090906004070706010020406090901A
:103D40009060040707060100205060909090600486
:103D5000070706010050A0609090906004070706D6
:103D600001005000609090906005050506000088F5
:103D7000502050880408080601FF1070B0B0D0D061
:103D8000E0800407070601004020909090906004B6
:103D900007070601002040909090906004070706F6
:103DA0000100205090909090600407070601005099
:103DB0000090909090600507070600001020885042
:103DC00020202004060606010080E09090E0800498
:103DD00006060601006090A0A090A0040707060157
:103DE00000402000709090700407070601002040FA
:103DF000007090907004070706010020500070903A
:103E0000907004070706010050A0007090907004A5
:103E10000606060100500070909070040707060126
:103E2000002050207090907005040406000070A8D7
:103E3000B0780406060601FE7080807020400407FA
:103E40000706010040200060B0C0700407070601AB
:103E50000020400060B0C070040707060100205039
:103E60000060B0C070040606060100500060B0C0DB
:103E700070030707060100804000C04040E00307D0
:103E800007060100204000C04040E003070706018C
:103E90000040A000C04040E0030606060100A0006C
:103EA000C04040E0040707060100306010709090A9
:103EB0006004070706010050A000E09090900407FE
:103EC000070601004020006090906004070706018B
:103ED0000020400060909060040707060100205019
:103EE000006090906004070706010050A0006090F9
:103EF0009060040606060100500060909060050581
:103F0000050600002000F8002004040406010070EB
:103F1000B0D0E004070706010040200090909070A8
:103F200004070706010020400090909070040707E6
:103F300006010020500090909070040606060100D3
:103F40005000909090700409090601FE20400090F6
:103F500090907090600408080601FE8080E09090C8
:103F6000E080800408080601FE5000909090709058
:103F700060426162797374657070696E6720580081
:103F8000426162797374657070696E67205900428E
:103F90006162797374657070696E67205A004D367E
:103FA0003030004368616E67652066696C616D65DD
:103FB0006E74004261627973746570205A004261C8
:103FC0006279737465702059004261627973746517
:103FD00070205800466C6F77203000466C6F772059
:103FE0003000466C6F7700466C6F770046616E203C
:103FF00073706565640046616E207370656564006A
:1040000042656400426564004E6F7A7A6C65004ECA
:104010006F7A7A6C650053706565640053706565EE
:1040200064004D61696E005072656865617420506E
:104030004C4120426564005072656865617420508F
:104040004C412031005072657061726500010508B5
:1040500000FF060121023520FFFF07FF06FF0900D0
:1040600050221656808080800080153353A0A0A077
:104070000257575050F850F850500257572070A030
:104080007028702013355580A040A020024757406B
:10409000A0A040A0A0502513538080801226564037
:1040A00080808080401226568040404040800245FB
:1040B000559060F060900255552020F82020113373
:1040C00053604080044151F011335340E0400246B8
:1040D0005610102040808012365640A0A0A0A0406C
:1040E00012365640C0404040E00246566090106094
:1040F00080F0024656F02060109060024656206024
:10410000A0F02020024656F080E010906002465653
:104110006080E0909060024656F0102020404002FF
:104120004656609060909060024656609090701085
:1041300060122555C0C000C0C011365660600060D6
:104140004080123656204080804020034353F000C8
:10415000F012365680402020408012365640A02073
:10416000400040015858304898A8A8904030024676
:1041700056609090F09090024656E090E09090E06B
:10418000024656609080809060024656E090909083
:1041900090E0024656F080E08080F0024656F080C3
:1041A000E0808080024656609080B0906002465663
:1041B0009090F0909090123656E040404040E002DF
:1041C000465670202020A04002465690A0C0A0A0D5
:1041D000900246568080808080F002465690F0F033
:1041E00090909002465690D0F0B0B0900246566043
:1041F0009090909060024656E09090E08080014759
:1042000057609090D0B06010024656E09090E090D9
:1042100090024656609040209060123656E0404032
:1042200040404002465690909090906002465690D2
:104230009090906060024656909090F0F090024608
:1042400056909060609090025656888850202020AA
:10425000024656F010204080F0123656E0808080F2
:1042600080E0024656808040201010123656E02032
:10427000202020E016325240A0014151F016225277
:104280008040024454709090700246568080E090C6
:1042900090E0123454608080600246561010709096
:1042A000907002445460B0C060024656205040E016
:1042B000404001455560907010600246568080E095
:1042C0009090901236564000C04040E01137572081
:1042D00000202020A040024656808090E09090125E
:1042E0003656C040404040E0025454D0A8A8A8022E
:1042F0004454E09090900244546090906001455581
:10430000E090E08080014555709070101002445498
:10431000A0D0808012345460C020C0024656404075
:10432000E040502002445490909070123454A0A069
:10433000A04002545488A8A8500244549060609051
:104340000145559090709060024454F02040F00276
:104350004757304020C02040302216568080808051
:104360008080024757C02040304020C00642525053
:10437000A0FFFFFFFFFFFFFFFFFFFFFFFFFFFFFFAC
:10438000FFFFFFFFFFFFFFFFFFFFFFFFFFFFFFFF3D
:10439000FFFF090050221656800080808080014671
:1043A000562070A0A070200246562050E04050A039
:1043B00002555588705070880256568850F820F87B
:1043C00020221757808080008080800247577080AD
:1043D000E0907010E0173151A002565670A8C8C87E
:1043E000A87014355560A06000E003435350A050FE
:1043F000123353E02020143151E002565670E8D8B1
:10440000E8D870173151E015335340A040123555AC
:1044100040E04000E014355540A02040E014355500
:10442000C020C020C0162252408001455590909077
:10443000E08002565678E8E8682828241151801157
:104440002252408014355540C04040E0143555405C
:10445000A04000E0034353A050A002475780808053
:10446000A060F0200247578080A0D0102070024743
:104470005780408060A0F02012365640004080A057
:104480004002475740206090F090900247572040EC
:104490006090F0909002475760906090F09090028A
:1044A000475750A06090F09090024757900060905E
:1044B000F0909002475760906090F09090024656BE
:1044C00070A0A0F0A0B0014757609080809060403D
:1044D0000247574020F080E080F00247572040F02C
:1044E00080E080F00247576090F080E080F0024763
:1044F000579000F080E080F01237578040E0404055
:1045000040E01237572040E0404040E0123757402B
:10451000A0E0404040E0123757A000E0404040E0BB
:104520000256567048E848487002475750A090D04D
:10453000B09090024757402060909090600247579B
:1045400020406090909060024757609060909090FB
:104550006002475750A060909090600247579000CB
:104560006090909060123353A040A002465670B005
:10457000B0D0D0E002475740209090909060024722
:104580005720409090909060024757609090909094
:10459000906002475790009090909060025757109B
:1045A00020885020202002465680E09090E0800233
:1045B00046566090A0A090A00247574020007090FF
:1045C000907002475720400070909070024757202B
:1045D00050007090907002475750A00070909070FB
:1045E000024656500070909070024757609060707D
:1045F000909070025454F068B07811355560808006
:10460000604002475740200060B0C060024757201A
:10461000400060B0C06002475760900060B0C0606A
:10462000024656500060B0C060123757804000C04C
:104630004040E0123757204000C04040E01237575A
:1046400040A000C04040E0123656A000C04040E00C
:10465000024757A040A01070906002475750A0003A
:10466000E090909002475740200060909060024791
:104670005720400060909060024757609000609023
:10468000906002475750A00060909060024656909C
:1046900000609090601235554000E00040024454A4
:1046A00070B0D0E0024757402000909090700247D1
:1046B0005720400090909070024757609000909073
:1046C000907002465690009090907001485820409B
:1046D0000090907090600147578080E090E080806B
:1046E000014757900090907090600000010000001A
:1046F0000000000032800000000000004B000000BD
:104700000000000033000000000000003300000043
:10471000000000003300000000000000331FF00024
:1047200000000000331FF0000000000033183000CC
:104730000000000033183000000000003318300083
:104740000000000033183000000000003324300067
:104750000000000033186000000000003301C400B6
:104760000000000033028A000000000033029A00BB
:104770000000000033013C00000000013304600031
:10478000000007FEB30AC400004007FF330ACA183E
:1047900004A00600330CCA240A600600330CC618B5
:1047A0000460067FF30CC31806600660030CC19812
:1047B00006600660030CC19806600660030CC19891
:1047C00006600660030CC19806600660030CC19881
:1047D00006600660030CC19806600660030CC19871
:1047E00006600660030CC19806600660030CC19861
:1047F00006600660030CC19806600660030CC19851
:1048000006600660030CC19806600660830CC198C0
:104810000660067F460CC19FFE60067E8C0CC1CFF1
:10482000FE6006001C0CC0C000600600380CC060B2
:10483000006007FFF009203FFE6007FFE014C03F63
:10484000FE6000000008000006600000000000009C
:10485000066000000000003FC6600000000000305D
:10486000C660000000000030C66000000000003F8D
:10487000C66000000000003FC6600000000000307D
:10488000066000000000003FC66000000000003F1E
:10489000C66000000000000006600000000001008B
:1048A00006600000000002FFFE600000000002FF42
:1048B000FE60000000000100006000000000000039
:1048C000006000000000001FFFE000000000007F0B
:1048D000FFE00000000000E00000000000000140D8
:1048E00000000000000000800000B02000B02000A8
:1048F00000002100240027002A002D003000330092
:1049000001010000040107010A0100002200250046
:1049100028002B002E0031003400020100000501A8
:1049200008010B01000020002300260029002C00B4
:104930002F003200000100000301060109010505F6
:104940000505070508080808020202020A0A080805
:104950000404040401010101010101010303030333
:1049600003030303040707070C0C0C0C0C0C0C0CC2
:104970000202020206060606060606060B0B0B0BD3
:104980000B0B0B0B010210202008081020401020F8
:104990004080020102010804020101020408102003
:1049A0004080804020100804020180040201804001
:1049B000201008040201080402010102040810206A
:1049C0004080010204081020408000000A0B020908
:1049D0000C0D0E0807030401000000000000000099
:1049E00000000000000000000000000000000000C7
:1049F0000000000000001211100000000000000084
:104A000000000000000000000000000000000000A6
:104A100053746F7265206D656D6F727900426564C5
:104A200000426564004E6F7A7A6C65004E6F7A7A48
:104A30006C650046616E2073706565640046616E4A
:104A40002073706565640054656D7065726174757E
:104A500072650053746F7265206D656D6F727900B9
:104A600042656400426564004E6F7A7A6C65004E60
:104A70006F7A7A6C650046616E20737065656400BC
:104A800046616E2073706565640054656D70657273
:104A900061747572650046696C2E204469612E2030
:104AA000310046696C2E204469612E2031004F662A
:104AB00066004F6E20004F6666004F6E2000452056
:104AC000696E206D6D3300436F6E74726F6C004CB5
:104AD000434420636F6E7472617374004D3234000E
:104AE0004D323320257300F92E2E004D61696E0082
:104AF0004E414E494E495459494E46CDCCCC3D0AC3
:104B0000D7233C17B7D13877CC2B329595E6241FA5
:104B1000B14F0A000020410000C84200401C46205E
:104B2000BCBE4CCA1B0E5AAEC59D74005501D700C1
:104B300011241FBECFEFD1E2DEBFCDBF00E00CBF1E
:104B400015E0A0E0B2E0EEEAF0E302E00BBF02C045
:104B500007900D92A832B107D9F725E1A8E2B5E098
:104B600001C01D92A033B207E1F715E2C7E9D5E213
:104B700000E006C021970109802FFE010F946B0B06
:104B8000C639D10780E00807A9F70F9448040D94AF
:104B900045180C9400002F923F924F925F926F92B3
:104BA0007F928F929F92AF92BF92CF92DF92EF92BD
:104BB000FF920F931F93CF93DF93CDB7DEB7CE56FF
:104BC000D1400FB6F894DEBF0FBECDBF87E40E9480
:104BD0002165F82E882311F40C943D3B0E94476513
:104BE0000F94FC0C6C31710509F48CC19CF462309B
:104BF000710509F428C124F477FF3DC00C94F85DD9
:104C00006330710509F42BC16430710509F433C1B7
:104C10000C94F85D6A35710511F40C94D83AFCF4E3
:104C20006D31710509F4A9C46E31710511F00C9450
:104C3000F85D0E9411D60E94186380E090E0A0EF1A
:104C4000B3E48093780290937902A0937A02B093B0
:104C50007B020E940D64EFE8F8E00C947C3A6B351F
:104C6000710511F40C94DC3A6C35710511F40C9457
:104C7000E13A0C94F85D8091290D81110C94F85D56
:104C80000E94C0C58FEA9CE00E9458C10E9442FA6F
:104C90006093A20C7093A30C8093A40C9093A50C2A
:104CA0008090AF0C9090B00CA090B10CB090B20C72
:104CB000CF5DDE4F88829982AA82BB82C152D140E9
:104CC000A50194016091000C7091010C8091020C7F
:104CD0009091030C0F94D3144090B30C5090B40CEB
:104CE0006090B50C7090B60CE090B70CF090B80CDA
:104CF0000091B90C1091BA0CCB5DDE4FE882F982BD
:104D00000A831B83C552D14081117EC0A301920149
:104D10006091040C7091050C8091060C9091070C29
:104D20000F94D314811170C020E030E040E752E4CA
:104D3000609178027091790280917A0290917B0261
:104D40000F948A0C4B015C0187E49CE09F938F9346
:104D5000ABEBCA2EACE0DA2ECB5DDE4FE880F980FB
:104D60000A811B81C552D140A3019201CF5DDE4F64
:104D7000688179818A819B81C152D1400E94E594EA
:104D80000F900F908091AF0C9091B00CA091B10C4E
:104D9000B091B20C8093000C9093010CA093020C84
:104DA000B093030C8091B30C9091B40CA091B50C0E
:104DB000B091B60C8093040C9093050CA093060C54
:104DC000B093070C8091B70C9091B80CA091B90CDE
:104DD000B091BA0C8093080C9093090CA0930A0C24
:104DE000B0930B0C8091BB0C9091BC0CA091BD0CAE
:104DF000B091BE0C80930C0C90930D0CA0930E0CF4
:104E0000B0930F0C0C94F85D60918702709188024A
:104E1000072E000C880B990B0F94DA14209178025E
:104E20003091790240917A0250917B020F94C40F25
:104E300020E030E040E752E40F948A0C20E030E0BC
:104E400048EC52E47DCF8091290D81110C94F85DDE
:104E50000E9445C681E00E940AC20C94F85D8091D0
:104E6000290D81110C94F85D0E9445C680E00E94D6
:104E70000AC20C94F85D8DE199E00E943CB380E594
:104E80000E942165882339F00E9447650F94030D25
:104E90006B017C0103C0C12CD12C760183E50E94FB
:104EA0002165882361F00E94476520E030E04AE7F1
:104EB00054E40F94C40F0F94030D6B017C010E9406
:104EC00011D60E9442FAC60ED71EE81EF91E0E9495
:104ED00042FA6093A20C7093A30C8093A40C90935D
:104EE000A50C0E9442FA6C157D058E059F0510F0F9
:104EF0000C94F85D0E947ED380E00E9447BF0E9420
:104F000073B3EFCF80E090E0A0E8BFE3809321028D
:104F100090932202A0932302B093240210922502C0
:104F20001092260210922702109228021092290253
:104F300010922A0210922B0210922C0210922D0233
:104F400010922E0210922F021092300280933102A2
:104F500090933202A0933302B09334021092350240
:104F600010923602109237021092380210923902D3
:104F700010923A0210923B0210923C0210923D02B3
:104F800010923E0210923F02109240028093410222
:104F900090934202A0934302B0934402809178021E
:104FA00090917902A0917A02B0917B0280933005B2
:104FB00090933105A0933205B09333058091870219
:104FC0009091880290932F0580932E0584E690E0BF
:104FD00090938802809387020E9442FA6093A20C09
:104FE0007093A30C8093A40C9093A50C11E01093E4
:104FF00020028091000C9091010CA091020CB091C4
:10500000030C8093AF0C9093B00CA093B10CB093B1
:10501000B20C8091040C9091050CA091060CB091FB
:10502000070C8093B30C9093B40CA093B50CB09381
:10503000B60C8091080C9091090CA0910A0CB091CB
:105040000B0C8093B70C9093B80CA093B90CB09351
:10505000BA0C80910C0C90910D0CA0910E0CB0919B
:105060000F0C8093BB0C9093BC0CA093BD0CB09321
:10507000BE0C109278021092790210927A0210926D
:105080007B0288E50E942165882311F080E009C039
:1050900089E50E9421658111F9CF8AE50E94216589
:1050A00081278093010281110C94FB5D88E50E94A9
:1050B000216581110C94FB5D8091010281110C949A
:1050C000015E89E50E94216581110C94015E88E5ED
:1050D0000E9421658823D1F00E943C65672B682BD4
:1050E000692BA1F00E9447652091F3123091F412D0
:1050F0004091F5125091F6120F94900B6093000CB2
:105100007093010C8093020C9093030C89E50E942C
:1051100021658823D1F00E943C65672B682B692BA1
:10512000A1F00E9447652091F7123091F81240914A
:10513000F9125091FA120F94900B6093040C709333
:10514000050C8093060C9093070C80910102882334
:1051500009F4A8C080E090E0A3E1B3E48093AF0C31
:105160009093B00CA093B10CB093B20C80E090E09F
:10517000A0EEB2E48093B30C9093B40CA093B50C62
:10518000B093B60CEAE4FCE1E4910DEFE002F0012B
:105190001124BF01FF0F880B990B0F94DA14609351
:1051A000B70C7093B80C8093B90C9093BA0C80E054
:1051B00090E0A5E0B3E48093780290937902A09305
:1051C0007A02B0937B021092080C1092090C109294
:1051D0000A0C10920B0C2091040C3091050C40919C
:1051E000060C5091070C6091000C7091010C80919D
:1051F000020C9091030CE12CF12C87010E945D8937
:105200008090780290907902A0907A02B0907B0210
:10521000E090B70CF090B80C0091B90C1091BA0C5A
:105220002091B30C3091B40C4091B50C5091B60C58
:105230006091AF0C7091B00C8091B10C9091B20C58
:10524000E7E4FCE0FF93EF93FBEBCF2EFCE0DF2ED7
:105250000E94E5940E9411D68091AF0C9091B00C01
:10526000A091B10CB091B20C8093000C9093010C02
:10527000A093020CB093030C8091B30C9091B40CEA
:10528000A091B50CB091B60C8093040C9093050CD2
:10529000A093060CB093070C82E090E00E9450BCF3
:1052A0000F900F908AE50E942165882309F4F5C0CC
:1052B00080918005882309F4A8C080918105882306
:1052C00009F4A3C08090000C9090010CA090020CF7
:1052D000B090030C20E030E040EB51E4C501B40194
:1052E0000F948F0B6B017C0120E030E0A9010F943B
:1052F000F00D87FDADC020E030E04AE753E4C70180
:10530000B6010F94D31418160CF4A2C04090040CEC
:105310005090050C6090060C7090070C20E030E077
:1053200048EB51E4C301B2010F94900B6B017C0177
:1053300020E030E0A9010F94F00D87FD89C020E046
:1053400030E047E853E4C701B6010F94D3141816B0
:105350000CF47EC01092080C1092090C10920A0CEA
:1053600010920B0CE12CF12C8701A3019201C501D5
:10537000B4010E945D89EAE4FCE1E4911DEFE102E1
:10538000F0011124BF01FF0F880B990B0F94DA1461
:105390007B018C016093B70C7093B80C8093B90CAF
:1053A0009093BA0C80900B0D90900C0DA0900D0D69
:1053B000B0900E0D8092780290927902A0927A02BB
:1053C000B0927B022091B30C3091B40C4091B50C9B
:1053D0005091B60C6091AF0C7091B00C8091B10CF3
:1053E0009091B20CE7E4FCE0FF93EF93EBEBCE2E51
:1053F000ECE0DE2E0E94E5940E9411D682E090E05F
:105400000E9450BC0F900F9048C08BE099E00E9422
:105410003CB3EEE3FEE08491882341F09091C0001C
:1054200095FFFCCF8093C6003196F5CFE9EFF8E009
:105430008491882341F09091C00095FFFCCF809328
:10544000C6003196F5CF8091C00085FFFCCF22C009
:1054500088EE98E00E943CB3EEE3FEE0849188235E
:1054600041F09091C00095FFFCCF8093C60031962B
:10547000F5CFE7EDF8E08491882341F09091C000EA
:1054800095FFFCCF8093C6003196F5CF8091C00088
:1054900085FFFCCF8AE08093C6008AE50E942165E3
:1054A0008823D1F00E943C65672B682B692BA1F003
:1054B0000E9447652091FB123091FC124091FD1231
:1054C0005091FE120F94900B6093080C7093090C8E
:1054D00080930A0C90930B0C8091010281110C9423
:1054E000075E8AE50E94216581110C94075EE090B9
:1054F000080CF090090C00910A0C10910B0C2091F3
:10550000040C3091050C4091060C5091070C6091F1
:10551000000C7091010C8091020C9091030C0E9480
:105520005D89109220028091300590913105A09103
:105530003205B09133058093780290937902A0935D
:105540007A02B0937B0280912E0590912F05909363
:105550008802809387020E9442FA6093A20C7093A3
:10556000A30C8093A40C9093A50C10929505109217
:105570009405109293050C94F85D80918005882322
:1055800021F080918105811127C085EC98E00E946F
:105590003CB3EEE3FEE08491882341F09091C0009B
:1055A00095FFFCCF8093C6003196F5CFE3EBF8E092
:1055B0008491882341F09091C00095FFFCCF8093A7
:1055C000C6003196F5CF8091C00085FFFCCF8AE000
:1055D0008093C6000C94F85D0E9411D680E090E0A4
:1055E000A0E8BFE38093210290932202A0932302BC
:1055F000B0932402109225021092260210922702E4
:10560000109228021092290210922A0210922B0264
:1056100010922C0210922D0210922E0210922F0244
:10562000109230028093310290933202A0933302A1
:10563000B093340210923502109236021092370263
:10564000109238021092390210923A0210923B02E4
:1056500010923C0210923D0210923E0210923F02C4
:10566000109240028093410290934202A093430221
:10567000B0934402CE018F5E9E4F0E94F593CF5EA1
:10568000DE4F688179818A819B81C151D1406093CD
:10569000000C7093010C8093020C9093030CCB5E72
:1056A000DE4F288139814A815B81C551D1402093E9
:1056B000040C3093050C4093060C5093070CC75E06
:1056C000DE4FE880F9800A811B81C951D140E09208
:1056D000080CF092090C00930A0C10930B0C0E941A
:1056E0005D890E94186380E090E0A0EFB3E48093AE
:1056F000780290937902A0937A02B0937B02612C96
:10570000712CC35CDE4F19821882CD53D1400CE35B
:10571000202E312C21E430E0C75DDE4F3983288311
:10572000C952D1404CE350E0CF5DDE4F59834883EE
:10573000C152D140C35DDE4F1882CD52D140882482
:105740008394912C8C0E9D1E860C971CCB5DDE4F96
:1057500099828882C552D140C35CDE4FA880B9804F
:10576000CD53D140C15DDE4FB982A882CF52D14026
:10577000412C512C6101032C000CEE08FF08C75C82
:10578000DE4FC882D982EA82FB82C953D140C15D13
:10579000DE4F88809980CF52D140892889F020E05F
:1057A00030E040E450E46091080C7091090C809165
:1057B0000A0C90910B0C0F94900B6B017C0105C0AF
:1057C000C12CD12CB0E4EB2EFE2CC75CDE4F6881DF
:1057D00079818A819B81C953D1400F94DA14CF5CBF
:1057E000DE4F688379838A839B83C153D140CF5D29
:1057F000DE4FA880B980C152D140B501BB0C880BE7
:10580000990B0F94DA144B015C012091040C309138
:10581000050C4091060C5091070C6091000C7091A2
:10582000010C8091020C9091030C870176010E947B
:105830004463C090080CD090090CE0900A0CF090E2
:105840000B0C20E030E048EB51E4CF5CDE4F688188
:1058500079818A819B81C153D1400F948F0BCB5C9E
:10586000DE4F688379838A839B83C553D14020E0D0
:1058700030E040EB51E4C501B4010F94900B870177
:105880007601CB5CDE4F288139814A815B81C5532B
:10589000D1400E9444630E940D64C090080CD090D7
:1058A000090CE0900A0CF0900B0CE7E1F3E0849116
:1058B000882341F09091C00095FFFCCF8093C600F3
:1058C0003196F5CFE2E1F3E08491882341F09091A5
:1058D000C00095FFFCCF8093C6003196F5CF42E023
:1058E000C501B4010E940E75EDE0F3E084918823B8
:1058F00041F09091C00095FFFCCF8093C600319697
:10590000F5CF42E0CF5CDE4F688179818A819B814F
:10591000C153D1400E940E75E8E0F3E084918823E2
:1059200041F09091C00095FFFCCF8093C600319666
:10593000F5CF42E0C701B6010E940E75E6E0F3E044
:105940008491882341F09091C00095FFFCCF809313
:10595000C6003196F5CFF201E60DF71D09EC10E017
:105960000C0F1D1FE00FF11FC082D182E282F38273
:10597000CB5DDE4FA881B981C552D1408D929D92F9
:10598000AD92BD92CB5DDE4FB983A883C552D140A5
:10599000CF5CDE4F88809980AA80BB80C153D14004
:1059A00090968D929D92AD92BC929397FD01EC5B87
:1059B000FF4F812C912CA0E8AA2EAFE3BA2E808253
:1059C0009182A282B382C15DDE4F08811981CF52DC
:1059D000D1400F5F1F4FC15DDE4F19830883CF5247
:1059E000D140CF5DDE4F88809980C152D140C75DE4
:1059F000DE4FA880B980C952D1408A0C9B1CCF5D74
:105A0000DE4F99828882C152D14004E0400E511C81
:105A10001CE04116510409F0BACEC35CDE4F288168
:105A20003981CD53D1402D5F3F4FC35CDE4F398369
:105A30002883CD53D1403BE4230E311C4DE1241685
:105A400041E03406B9F1C35DDE4F8880CD52D140CC
:105A5000811017C00FEB1FEFC75DDE4F198308835E
:105A6000C952D1402EEB30E0CF5DDE4F3983288321
:105A7000C152D14031E0C35DDE4F3883CD52D140B9
:105A800015C041E450E0C75DDE4F59834883C952D9
:105A9000D1408CE390E0CF5DDE4F99838883C15283
:105AA000D140C35DDE4F1882CD52D1409CE0690EDB
:105AB000711C45CE0E94F3628CE690E00F94821038
:105AC000CF5DDE4F99838883C152D14020E030E022
:105AD00080E090E0AC01420F531FCF5DDE4FE881C4
